:20226D0090F200E020E7F922AF82AE83ADF0FC900400EFF0EEA3F0EDA3F0ECA3F090040447
:20228D00E4F0A3F0A3F0A3F0900408F0A3F0A3F0A3F0900404F0A3F0A3F0A3F0900400E0AA
:2022AD00FCA3E0FDA3E0FEA3E0FF900404E0F8A3E0F9A3E0FAA3E0FBC3E89CE99DEA9EEB6B
:2022CD009F506F900408E4F0A3F0A3F0A3F0900408E0F8A3E0F9A3E0FAA3E0FBC3E8947FC1
:2022ED00E99400EA9400EB94005023900408E0F8A3E0F9A3E0FAA3E0FB900408740128F0D0
:20230D00E439A3F0E43AA3F0E43BA3F080C0900404E0F8A3E0F9A3E0FAA3E0FB900404746A
:20232D000128F0E439A3F0E43AA3F0E43BA3F00222B72290000FE4F5F012227590F0007462
:20234D0038F0900005E4F5F012227590F0007438F0900001E4F5F012227590F0007438F006
:20236D0012226D90F0007438F012226D90F0007408F012226D90F000740EF012226D90F052
:20238D00007406F012226D90F0007401F022E58290040CF012226D90040CE090F100F02273
:2023AD00AF83E58290040DF0EFA3F090040DE0FEA3E0FF8E828F83E07003022453C007C0EE
:2023CD000612226DD006D0078E828F83E0FDA3AE82AF8390040DEEF0EFA3F08D82C007C001
:2023ED000612239BD006D00790044BE0FCA3E0FD90044B74012CF0E43DA3F090044BE0FC33
:20240D00A3E0FDBC10ADBD00AA90044DE0FCA3E0FD90044D74012CF0E43DA3F090044BE429
:20242D00F0A3F090044DE0FCA3E090044BE0FBA3E0900410EBF08C82C007C00612247AD0F5
:20244D0006D0070223C090040DEEF0EFA3F02212226D90F0007401F022E58290040FF012D6
:20246D00226D90040FE090F0004480F022E582900411F0900410E0FF90044BF0E4A3F09092
:20248D000411E0FE90044DF0E4A3F0BE0102800FBE02028011BE03028018BE0429801F8FDD
:2024AD008212246680208F0674282EF58212246680148F06740F2EF58212246680087450A6
:0724CD002FF58212246622A4
:042B8A000000000047
:042200000222113273
:03220B000224D4D6
:03226A0002220E3F
:03220E000226B9EC
:2024D400C0E0C082C083C007C006C005C004C003C002C001C000C0D075D000C2AFC28CC251
:2024F4008D758C4B758AFCB291D28CD2AF90044FE0F8A3E0F9A3E0FAA3E0FBA3E0FCA3E09E
:20251400FDA3E0FEA3E0FF90044F740128F0E439A3F0E43AA3F0E43BA3F0E43CA3F0E43D50
:20253400A3F0E43EA3F0E43FA3F090044FE0F8A3E0A3E0A3E0A3E0A3E0A3E0A3E0E820E051
:202554001B9004577401F090044FE4F0A3F0A3F0A3F0A3F0A3F0A3F0A3F08005900457E4EC
:20257400F0D0D0D000D001D002D003D004D005D006D007D083D082D0E032E582900413F096
:202594007F02900413E0FEE060541FEF2414FCE43404FD7B00900437740AF0E4A3F08E82F7
:2025B4008B83C007C006C005C004C00312293DA982D003D004D005D0067430298C828D8340
:2025D400F0900440740AF0E4A3F08E828B83122A51AD82AE83D007900413EDF080A4C007ED
:2025F4007470C0E0742BC0E012283415811581D0077E00C3EE9F5010EE2414F582E43404AC
:20261400F5837430F00E80EB12226D9004141223AD12226D90F100743AF022900457E0FF4A
:20263400BF010280030226B8900457E4F0900458E004F0E0FFBF0A0B900459E004F09004DA
:2026540058E4F0900459E0FFBF3C0B90045AE004F0900459E4F090045AE0FF7E00900440C6
:20267400743CF0E4A3F08F828E83122A51AE82900412EEF09004107406F075820412247A13
:20269400900412E0F58212258E90045AE0F58212258E900459E0F58212258E900458E0F590
:2026B4008212258E229004177459F09004187465F09004197420F090041A7442F090041B8C
:2026D4007469F090041C746BF090041D7420F090041E7447F090041F7461F09004207479EF
:2026F400F09004217469F09004227420F09004237448F09004247461F09004257469F09024
:2027140004267420F09004277467F0900428746FF09004297472F090042A746DF090042B01
:202734007469F090042C746EF090042D7474F090042EE4F090042F744EF09004307469F0F1
:202754009004317474F09004327469F0900433746BF0900434E4F0900458F0900459F090BA
:20277400045AF01227DF7473C0E0742BC0E012283415811581900064E4F5F01222751223E4
:2027940040747BC0E0742BC0E012283415811581900064E4F5F012227590F1007441F012DF
:2027B400245C900410E4F075820112247A9004171223AD9004107406F075820412247A908F
:0B27D400042F1223AD12262F80FB22E1
:1A2B70000A0D000A0D4E6974696B000A0D2048656C6C6F20576F726C6400CB
:0C2B8E000000000000000000000000003B
:1E27DF00438901758C4B758AFCD28C7F01A2A9EF24FF92A97F01A2AFEF24FF92AF220C
:2027FD00758920759850758DFDD28E22AF83E582900435F0EFA3F010990280FB900435E01D
:17281D00FEA3E08E999000012210980280FBAE997F008E828F83221A
:06224000E478FFF6D8FD72
:20221E007910E94400601B7A01902B8A784B75A004E493F2A308B8000205A0D9F4DAF27552
:02223E00A0FFFF
:20283400C008858108E50824FDF8868318868218E493A324DB600C2425600512292280F067
:2028540002293AD2D5E493A3C083C082B4731486F018868318868218122B506054A3122990
:202874002280F5B4630818E6181229228043B46417E630E74618E6F42401F608E6F43400C3
:20289400F6742D1229228033B4782D868318868218E4122913E583122912E583122913E561
:2028B40082122912E58212291330D5057430122922D082D083022844B475F6E6FA18E6F96C
:2028D400187C107D271228FDFF7CE87D031228FDC4F5837C647D001228FD4283E975F00A5E
:2028F40084C445F0F582EF80A97B000BC3E99CF9EA9DFA50F61BE92CF9EA3DFAEB22C454BB
:202914000F700320D51FC2D52490D43440D4C083C082C0F0F582E8C0E0122809D0E0F8D0B7
:09293400F0D082D08322D00822E9
:20293D00AF83E582900439F0EFA3F0900439E0FEA3E0FF30E709C3E49EFCE49FFD80048E82
:20295D00048F05900437E0FEA3E0FF30E709C3E49EFAE49FFB80048E028F0390043BEAF06B
:20297D00EBA3F08C828D831229A5AE82AF83900439E0A3E030E70CC3E49EFCE49FFD8C823A
:08299D008D83228E828F8322BC
:2029A500AF83E58290043DF0EFA3F090043FE4F090043DE0FEA3E0FF7D0090043BE0FBA394
:2029C500E0FC235401FA7036EB2BFBEC33FC90043BEBF0ECA3F090043BE0FBA3E0FCC3EECF
:2029E5009BEF9C5011ECC313CB13CBFC90043BEBF0ECA3F080080D90043FEDF080BC9004A6
:202A05003FE0FF90043DE0FDA3E0FE90043BE0FBA3E0FCC3ED9BEE9C400B90043DEDC39BFF
:202A2500F0EE9CA3F090043BE0FDA3E0C313CD13CDFE90043BEDF0EEA3F08F061FEE70C3D2
:0C2A450090043DE0FEA3E08E82F58322A9
:202246007800E84400600A790075A004E4F309D8FC784BE84400600C7901900400E4F0A344
:04226600D8FCD9FACD
:202A5100AF83E582900442F0EFA3F0900442E0FEA3E0FF30E709C3E49EFCE49FFD80048E5B
:202A7100048F05900440E0FEA3E0FF33E433FB6009C3E49EF9E49FFA80048E018F029004D8
:202A910044E9F0EAA3F08C828D83C003122AC3AE82AF83D003900442E0A3E033E4336B6028
:122AB1000CC3E49EFCE49FFD8C828D83228E828F8322C2
:202AC300AF83E582900446F0EFA3F0900448E4F0A3F0900444E0FEA3E0FF7D10900446E04C
:202AE300FBA3E0FC90044A235401F0EB2BFBEC33FC900446EBF0ECA3F0900448E0FBA3E079
:202B0300FCEB2BFBEC33FC900448EBF0ECA3F090044AE06008900448E043E001F090044882
:202B2300E0FBA3E0FCC3EB9EEC9F4013900448EBC39EF0EC9FA3F0900446E043E001F0DD2D
:0D2B43009B900446E0FEA3E08E82F5832205
:0D221100758108122B6CE582600302220E1D
:1C2B500020F71430F6148883A88220F507E6A88375830022E280F7E49322E02294
:042B6C00758200224C
:00000001FF
