:20226D0090F200E020E7F922AF82AE83ADF0FC900400EFF0EEA3F0EDA3F0ECA3F090040447
:20228D00E4F0A3F0A3F0A3F0900408F0A3F0A3F0A3F0900404F0A3F0A3F0A3F0900400E0AA
:2022AD00FCA3E0FDA3E0FEA3E0FF900404E0F8A3E0F9A3E0FAA3E0FBC3E89CE99DEA9EEB6B
:2022CD009F506F900408E4F0A3F0A3F0A3F0900408E0F8A3E0F9A3E0FAA3E0FBC3E8947FC1
:2022ED00E99400EA9400EB94005023900408E0F8A3E0F9A3E0FAA3E0FB900408740128F0D0
:20230D00E439A3F0E43AA3F0E43BA3F080C0900404E0F8A3E0F9A3E0FAA3E0FB900404746A
:20232D000128F0E439A3F0E43AA3F0E43BA3F00222B72290000FE4F5F012227590F0007462
:20234D0038F0900005E4F5F012227590F0007438F0900001E4F5F012227590F0007438F006
:20236D0012226D90F0007438F012226D90F0007408F012226D90F000740EF012226D90F052
:20238D00007406F012226D90F0007401F022E58290040CF012226D90040CE090F100F02273
:2023AD00AF83E58290040DF0EFA3F090040DE0FEA3E0FF8E828F83E07003022453C007C0EE
:2023CD000612226DD006D0078E828F83E0FDA3AE82AF8390040DEEF0EFA3F08D82C007C001
:2023ED000612239BD006D007900450E0FCA3E0FD90045074012CF0E43DA3F0900450E0FC24
:20240D00A3E0FDBC10ADBD00AA900452E0FCA3E0FD90045274012CF0E43DA3F0900450E41A
:20242D00F0A3F0900452E0FCA3E0900450E0FBA3E0900410EBF08C82C007C00612247AD0EB
:20244D0006D0070223C090040DEEF0EFA3F02212226D90F0007401F022E58290040FF012D6
:20246D00226D90040FE090F0004480F022E582900411F0900410E0FF900450F0E4A3F0908D
:20248D000411E0FE900452F0E4A3F0BE0102800FBE02028011BE03028018BE0429801F8FD8
:2024AD008212246680208F06743F2EF58212246680148F06740F2EF582122466800874508F
:0724CD002FF58212246622A4
:04317D00000000004E
:042200000222113273
:03220B000224D4D6
:03226A0002220E3F
:03220E000226B2F3
:2024D400C0E0C082C083C007C006C005C004C003C002C001C000C0D075D000C2AFC28CC251
:2024F4008D758C4B758AFCB291D28CD2AF900454E0F8A3E0F9A3E0FAA3E0FBA3E0FCA3E099
:20251400FDA3E0FEA3E0FF900454740128F0E439A3F0E43AA3F0E43BA3F0E43CA3F0E43D4B
:20253400A3F0E43EA3F0E43FA3F0900454E0F8A3E0A3E0A3E0A3E0A3E0A3E0A3E0E820E04C
:202554001B90045C7401F0900454E4F0A3F0A3F0A3F0A3F0A3F0A3F0A3F0800590045CE4DD
:20257400F0D0D0D000D001D002D003D004D005D006D007D083D082D0E03290045CE0FFBF06
:202594000102800302261790045CE4F090045DE004F0E0FFBF0A0B90045EE004F090045D6F
:2025B400E4F090045EE0FFBF3C0B90045FE004F090045EE4F090045FE0FF7E009004457432
:2025D4003CF0E4A3F08F828E83122CC5AE82900412EEF09004107406F075820412247A9022
:2025F4000412E0F5821229C890045FE0F5821229C890045EE0F5821229C890045DE0F58276
:202614001229C82274E4C0E0742DC0E0122AA8158115817413C0E0742EC0E0122AA8158155
:202634001581744DC0E0742EC0E0122AA81581158174A1C0E0742EC0E0122AA81581158136
:2026540074C7C0E0742EC0E0122AA81581158174FBC0E0742EC0E0122AA815811581743B29
:20267400C0E0742FC0E0122AA8158115817476C0E0742FC0E0122AA81581158174BBC0E0A7
:20269400742FC0E0122AA8158115817426C0E07430C0E0122AA815811581122A7F229004D4
:2026B400137459F09004147465F09004157420F09004167442F09004177469F090041874B0
:2026D4006BF09004197420F090041A7447F090041B7461F090041C7479F090041D7469F082
:2026F40090041E7420F090041F7448F09004207461F09004217469F09004227420F0900468
:20271400237467F0900424746FF09004257472F0900426746DF09004277469F0900428745A
:202734006EF09004297474F090042AE4F090042B744EF090042C7469F090042D7474F090D9
:20275400042E7469F090042F746BF0900430E4F090045DF090045EF090045FF090043104CD
:20277400F01226181229AA122340900431E060697441C0E07430C0E0122AA8158115817420
:2027940056C0E07430C0E0122AA8158115817481C0E07430C0E0122AA81581158174B6C008
:2027B400E07430C0E0122AA81581158174DEC0E07430C0E0122AA81581158174F6C0E0740D
:2027D40030C0E0122AA8158115817401C0E07431C0E0122AA815811581900431E4F0122AC6
:2027F40092AE82900431EEF0E0FFBF3003022999BF31028008BF320280480229997417C087
:20281400E07431C0E0122AA815811581122A7FAE828E057F00C006C005C007742EC0E0746A
:2028340031C0E0122AA8E58124FCF5819004107401F075820112247AD0068E8212239B026A
:2028540029997431C0E07431C0E0122AA815811581122A7FAE82900432EEF0E024CA400863
:20287400900432E0FFBF300F7442C0E07431C0E0122AA815811581900432E0FF24CF50D13D
:20289400900432E0FFBF350050C7900432E0FF7E00C007C006742EC0E07431C0E0122AA859
:2028B400E58124FCF5817466C0E07431C0E0122AA815811581122A7FAE82900433EEF0E0C9
:2028D40024D0F0E0FFBF01028006900433E07023122A7FAE82900434EEF0E024D0F09004B6
:2028F40033E075F00AA4FF900434E0FE9004352FF0800D900434E4F0900433E0900435F088
:20291400900435E024EF500F7442C0E07431C0E0122AA815811581900435E024EF409690BB
:202934000435E0FF7E00C007C006747AC0E07431C0E0122AA8E58124FCF5817417C0E0740E
:2029540031C0E0122AA815811581122A7FAE828E057F00C006C005C007742EC0E07431C08C
:20297400E0122AA8E58124FCF581900432E024D0FF900435E0900410F08F8212247AD00616
:162994008E8212239B12258E900431E0FFBF3502800302277E22A2
:202DE4000A0D2057656C636F6D6520746F2074686520576F726C64204F6620776F726B691F
:202E04006E67286D6179626529204C43442E000A0D2054686572652061726520736F6D65FE
:202E240020696E737472756374696F6E7320746F2072656164206265666F726520746F20C4
:202E440070726F636565642E000A0D2054686973206C6162207761732061696D6564207421
:202E64006F20616C6C6F77207468652073747564656E747320746F206C6561726E20746874
:202E84006520696D706C656D656E746174696F6E206F6620746865204C43442E000A0D2015
:202EA400546865204C434420686173203420726F777320616E6420313620636F6C756D6ED7
:202EC400732E000A0D20547279696E6720746F20676F206265796F6E642074686174207797
:202EE400696C6C206769766520796F7520616E206572726F722E000A0D20696620796F755B
:202F04002077616E7420746F207072696E742061206368617261637465722C207765206885
:202F240061766520616E206F7074696F6E20666F7220796F752E000A0D20417320736F6F3B
:202F44006E20617320796F7520656E746572207468652070726F6772616D2C20746865202A
:202F640074696D65722077696C6C2073746172742E000A0D20496620796F752061726520FD
:202F84006865726520666F72207468652066697273742074696D652C205468652074696DD3
:202FA40065722069732073746F7070656420666F72206E6F772E000A0D20546865207469BD
:202FC4006D65722069732072756E6E696E6720636F6E74696E756F75736C792C20696620F5
:202FE400796F752077616E7420746F207072696E74207468652063686172616374657220F8
:2030040061742074696D6572277320706C6163652C2069747320696D706F737369626C65E4
:203024002E000A0D20507265737320456E74657220746F20436F6E74696E7565000A0D205D
:20304400596F7572204F7074696F6E73204172653A000A0D20312E205072696E7420746880
:20306400652063686172616374657220617420746865207374617274696E672E000A0D20D3
:20308400322E205072696E74207468652063686172616374657220617420796F75722070FD
:2030A4006C616365206F662063686F6F73696E672E000A0D20332E205072696E7420746819
:2030C4006520737472696E6720617420746865207374617274696E672E000A0D20342E2007
:2030E400436C656172207468652053637265656E2E000A0D20352E2045786974000A0D204B
:20310400456E74657220796F75722063686F6963653A000A0D456E74657220746865206300
:2031240068617261637465723A002563000A0D456E7465722074686520726F773A000A0D40
:2031440020536F7272792077726F6E672063686F6963652C20456E74657220416761696E0A
:193164002E000A0D456E7465722074686520636F6C756D6E3A002564003D
:0C31810000000000000000000000000042
:2029AA00438901758C4B758AFCD28C7F01A2A9EF24FF92A97F01A2AFEF24FF92AF22E582D6
:2029CA00900436F07F02900436E0FEE060541FEF2437FCE43404FD7B0090043C740AF0E45B
:2029EA00A3F08E828B83C007C006C005C004C003122BB1A982D003D004D005D0067430290B
:202A0A008C828D83F0900445740AF0E4A3F08E828B83122CC5AD82AE83D007900436EDF0E1
:202A2A0080A47E00C3EE9F5010EE2437F582E43404F5837430F00E80EB12226D900437125B
:0C2A4A0023AD12226D90F100743AF022CE
:202A5600758920759850758DFDD28E22AF83E58290043AF0EFA3F010990280FB90043AE0B7
:202A7600FEA3E08E999000012220980512258E80F8C298AE997F008E828F8322109802805D
:122A96000AAE997F008E828F83800612258E900000223F
:06224000E478FFF6D8FD72
:20221E007910E94400601B7A0190317D785075A004E493F2A308B8000205A0D9F4DAF27554
:02223E00A0FFFF
:202AA800C008858108E50824FDF8868318868218E493A324DB600C24256005122B9680F07B
:202AC800022BAED2D5E493A3C083C082B4731486F018868318868218122DC46054A3122B2C
:202AE8009680F5B4630818E618122B968043B46417E630E74618E6F42401F608E6F4340063
:202B0800F6742D122B968033B4782D868318868218E4122B87E583122B86E583122B87E512
:202B280082122B86E582122B8730D5057430122B96D082D083022AB8B475F6E6FA18E6F91D
:202B4800187C107D27122B71FF7CE87D03122B71C4F5837C647D00122B714283E975F00A82
:202B680084C445F0F582EF80A97B000BC3E99CF9EA9DFA50F61BE92CF9EA3DFAEB22C45444
:202B88000F700320D51FC2D52490D43440D4C083C082C0F0F582E8C0E0122A62D0E0F8D0E6
:092BA800F0D082D08322D0082273
:202BB100AF83E58290043EF0EFA3F090043EE0FEA3E0FF30E709C3E49EFCE49FFD80048E02
:202BD100048F0590043CE0FEA3E0FF30E709C3E49EFAE49FFB80048E028F03900440EAF0EB
:202BF100EBA3F08C828D83122C19AE82AF8390043EE0A3E030E70CC3E49EFCE49FFD8C8248
:082C11008D83228E828F832245
:202C1900AF83E582900442F0EFA3F0900444E4F0900442E0FEA3E0FF7D00900440E0FBA309
:202C3900E0FC235401FA7036EB2BFBEC33FC900440EBF0ECA3F0900440E0FBA3E0FCC3EE4E
:202C59009BEF9C5011ECC313CB13CBFC900440EBF0ECA3F080080D900444EDF080BC900425
:202C790044E0FF900442E0FDA3E0FE900440E0FBA3E0FCC3ED9BEE9C400B900442EDC39B75
:202C9900F0EE9CA3F0900440E0FDA3E0C313CD13CDFE900440EDF0EEA3F08F061FEE70C352
:0C2CB900900442E0FEA3E08E82F583222E
:202246007800E84400600A790075A004E4F309D8FC7850E84400600C7901900400E4F0A33F
:04226600D8FCD9FACD
:202CC500AF83E582900447F0EFA3F0900447E0FEA3E0FF30E709C3E49EFCE49FFD80048EDB
:202CE500048F05900445E0FEA3E0FF33E433FB6009C3E49EF9E49FFA80048E018F0290045D
:202D050049E9F0EAA3F08C828D83C003122D37AE82AF83D003900447E0A3E033E4336B6030
:122D25000CC3E49EFCE49FFD8C828D83228E828F83224B
:202D3700AF83E58290044BF0EFA3F090044DE4F0A3F0900449E0FEA3E0FF7D1090044BE0C1
:202D5700FBA3E0FC90044F235401F0EB2BFBEC33FC90044BEBF0ECA3F090044DE0FBA3E0F3
:202D7700FCEB2BFBEC33FC90044DEBF0ECA3F090044FE0600890044DE043E001F090044DF8
:202D9700E0FBA3E0FCC3EB9EEC9F401390044DEBC39EF0EC9FA3F090044BE043E001F0DDAD
:0D2DB7009B90044BE0FEA3E08E82F583228A
:0D221100758108122DE0E582600302220EA7
:1C2DC40020F71430F6148883A88220F507E6A88375830022E280F7E49322E0221E
:042DE00075820022D6
:00000001FF
