:10226D0090F200E020E7F922AF82AE83ADF0FC9052
:10227D000400EFF0EEA3F0EDA3F0ECA3F090040456
:10228D00E4F0A3F0A3F0A3F0900408F0A3F0A3F002
:10229D00A3F0900404F0A3F0A3F0A3F0900400E0E9
:1022AD00FCA3E0FDA3E0FEA3E0FF900404E0F8A38F
:1022BD00E0F9A3E0FAA3E0FBC3E89CE99DEA9EEBFD
:1022CD009F506F900408E4F0A3F0A3F0A3F09004E6
:1022DD0008E0F8A3E0F9A3E0FAA3E0FBC3E8947FDC
:1022ED00E99400EA9400EB94005023900408E0F880
:1022FD00A3E0F9A3E0FAA3E0FB900408740128F031
:10230D00E439A3F0E43AA3F0E43BA3F080C09004D9
:10231D0004E0F8A3E0F9A3E0FAA3E0FB9004047451
:10232D000128F0E439A3F0E43AA3F0E43BA3F00272
:10233D0022B72290000FE4F5F012227590F0007490
:10234D0038F0900005E4F5F012227590F000743825
:10235D00F0900001E4F5F012227590F0007438F061
:10236D0012226D90F0007438F012226D90F000740E
:10237D0008F012226D90F000740EF012226D90F0A4
:10238D00007406F012226D90F0007401F022E582C7
:10239D0090040CF012226D90040CE090F100F022EC
:1023AD00AF83E58290040DF0EFA3F090040DE0FEF5
:1023BD00A3E0FF8E828F83E07003022453C007C019
:1023CD000612226DD006D0078E828F83E0FDA3AE5C
:1023DD0082AF8390040DEEF0EFA3F08D82C007C0A5
:1023ED000612239BD006D007900461E0FCA3E0FD0C
:1023FD0090046174012CF0E43DA3F0900461E0FCC5
:10240D00A3E0FDBC10ADBD00AA900463E0FCA3E009
:10241D00FD90046374012CF0E43DA3F0900461E49D
:10242D00F0A3F0900463E0FCA3E0900461E0FBA353
:10243D00E0900410EBF08C82C007C00612247AD015
:10244D0006D0070223C090040DEEF0EFA3F0221288
:10245D00226D90F0007401F022E58290040FF012CD
:10246D00226D90040FE090F0004480F022E5829000
:10247D000411F0900410E0FF900461F0E4A3F090DB
:10248D000411E0FE900463F0E4A3F0BE0102800F9E
:10249D00BE02028011BE03028018BE0429801F8F68
:1024AD008212246680208F06743F2EF582122466D8
:1024BD0080148F06740F2EF58212246680087450D6
:0724CD002FF58212246622A4
:0432F00000000000DA
:042200000222113273
:03220B000224D4D6
:03226A0002220E3F
:03220E000226B2F3
:1024D400C0E0C082C083C007C006C005C004C003FA
:1024E400C002C001C000C0D075D000C2AFC28CC24F
:1024F4008D758C4B758AFCB291D28CD2AF900465E9
:10250400E0F8A3E0F9A3E0FAA3E0FBA3E0FCA3E076
:10251400FDA3E0FEA3E0FF900465740128F0E43914
:10252400A3F0E43AA3F0E43BA3F0E43CA3F0E43DDD
:10253400A3F0E43EA3F0E43FA3F0900465E0F8A325
:10254400E0A3E0A3E0A3E0A3E0A3E0A3E0E820E0AD
:102554001B90046D7401F0900465E4F0A3F0A3F003
:10256400A3F0A3F0A3F0A3F0A3F0800590046DE41E
:10257400F0D0D0D000D001D002D003D004D005D008
:1025840006D007D083D082D0E03290046DE0FFBF44
:102594000102800302261790046DE4F090046EE0BB
:1025A40004F0E0FFBF0A0B90046FE004F090046EA7
:1025B400E4F090046FE0FFBF3C0B900470E004F083
:1025C40090046FE4F0900470E0FF7E009004567471
:1025D4003CF0E4A3F08F828E83122DB2AE8290047D
:1025E40012EEF09004107405F075820412247A90AF
:1025F4000412E0F582122ACB900470E0F582122ACC
:10260400CB90046FE0F582122ACB90046EE0F58241
:10261400122ACB2274D1C0E0742EC0E0122B95157F
:102624008115817400C0E0742FC0E0122B951581D0
:102634001581743AC0E0742FC0E0122B95158115F2
:1026440081748EC0E0742FC0E0122B951581158122
:1026540074B4C0E0742FC0E0122B951581158174F9
:10266400E8C0E0742FC0E0122B9515811581742801
:10267400C0E07430C0E0122B95158115817463C0DD
:10268400E07430C0E0122B951581158174A8C0E068
:102694007430C0E0122B95158115817413C0E07459
:1026A40031C0E0122B9515811581122B82229004E2
:1026B400137459F09004147465F09004157420F0A8
:1026C4009004167442F09004177469F0900418741E
:1026D4006BF09004197420F090041A7447F090047D
:1026E4001B7461F090041C7479F090041D7469F0FB
:1026F40090041E7420F090041F7448F09004207419
:1027040061F09004217469F09004227420F0900424
:10271400237467F0900424746FF09004257472F0AD
:10272400900426746DF09004277469F09004287462
:102734006EF09004297474F090042AE4F090042B51
:10274400744DF090042C7479F090042D7420F09062
:10275400042E744EF090042F7461F0900430746D64
:10276400F09004317465F09004327420F0900433D6
:102774007469F09004347473F09004357420F0900C
:102784000436744EF09004377469F090043874740D
:10279400F09004397469F090043A746BF090043B3F
:1027A4007420F090043C7447F090043D7475F090EC
:1027B400043E7470F090043F7474F09004407461AB
:1027C400F0900441E4F090046EF090046FF09004F3
:1027D40070F090044204F0122618122AAD1223401D
:1027E400900442E07003022883742EC0E07431C068
:1027F400E0122B95158115817443C0E07431C0E05B
:10280400122B9515811581746EC0E07431C0E012ED
:102814002B951581158174A3C0E07431C0E0122B8F
:10282400951581158174BAC0E07431C0E0122B95FE
:102834001581158174D0C0E07431C0E0122B951558
:1028440081158174E9C0E07431C0E0122B951581C3
:1028540015817401C0E07432C0E0122B9515811506
:10286400817411C0E07432C0E0122B95158115817A
:10287400741CC0E07432C0E0122B95158115819050
:102884000442E4F0122B82AE82900442EEF0E0FFA8
:10289400BF30005003022A9FEF24C75003022A9F2F
:1028A400EF24D0FF240A83F582EF240D83F583E41B
:1028B400739FC70C516F82868B902A28292A2A2A53
:1028C4002A2A2A7432C0E07432C0E0122B95158192
:1028D4001581122B82AE828E057F00C006C005C012
:1028E400077449C0E07432C0E0122B95E58124FCE2
:1028F400F5819004107401F075820112247AD006D7
:102904008E8212239B022A9F744CC0E07432C0E072
:10291400122B9515811581122B82AE82900443EE01
:10292400F0E024CA4008900443E0FFBF300F745D18
:10293400C0E07432C0E0122B9515811581900443D8
:10294400E0FF24CF50D1900443E0FFBF350050C7CF
:10295400900443E0FF7E00C007C0067449C0E074E1
:1029640032C0E0122B95E58124FCF5817481C0E02E
:102974007432C0E0122B9515811581122B82AE8220
:10298400900444EEF0E024D0F0E0FFBF01028006A2
:10299400900444E07023122B82AE82900445EEF042
:1029A400E024D0F0900444E075F00AA4FF900445BC
:1029B400E0FE9004462FF0800D900445E4F090046E
:1029C40044E0900446F0900446E024EF500F745D18
:1029D400C0E07432C0E0122B951581158190044635
:1029E400E024EF4096900446E0FF7E00C007C00656
:1029F4007495C0E07432C0E0122B95E58124FCF597
:102A0400817432C0E07432C0E0122B9515811581B7
:102A1400122B82AE828E057F00C006C005C00774EB
:102A240049C0E07432C0E0122B95E58124FCF581A5
:102A3400900443E024D0FF900446E0900410F08F0B
:102A44008212247AD0068E8212239B804E90046ECA
:102A5400E4F090046FF0900470F07498C0E0743265
:102A6400C0E0122B95158115818030C28C74B4C0DE
:102A7400E07432C0E0122B9515811581801DD28C33
:102A8400801912245C8014122618800F74D1C0E0BF
:102A94007432C0E0122B9515811581900442E0FF39
:092AA400BF380280030227E4227E
:102ED1000A0D2057656C636F6D6520746F207468EF
:102EE1006520576F726C64204F6620776F726B6933
:102EF1006E67286D6179626529204C43442E000A72
:102F01000D2054686572652061726520736F6D656F
:102F110020696E737472756374696F6E7320746F58
:102F21002072656164206265666F726520746F202E
:102F310070726F636565642E000A0D2054686973B1
:102F4100206C6162207761732061696D6564207412
:102F51006F20616C6C6F7720746865207374756481
:102F6100656E747320746F206C6561726E20746875
:102F71006520696D706C656D656E746174696F6EE5
:102F8100206F6620746865204C43442E000A0D2092
:102F9100546865204C434420686173203420726F6B
:102FA100777320616E6420313620636F6C756D6EAE
:102FB100732E000A0D20547279696E6720746F2098
:102FC100676F206265796F6E642074686174207721
:102FD100696C6C206769766520796F7520616E2058
:102FE1006572726F722E000A0D20696620796F7505
:102FF1002077616E7420746F207072696E74206125
:10300100206368617261637465722C207765206842
:1030110061766520616E206F7074696F6E20666FD6
:103021007220796F752E000A0D20417320736F6F26
:103031006E20617320796F7520656E7465722074DE
:1030410068652070726F6772616D2C2074686520ED
:1030510074696D65722077696C6C20737461727428
:103061002E000A0D20496620796F75206172652056
:103071006865726520666F72207468652066697282
:1030810073742074696D652C205468652074696DB2
:1030910065722069732073746F7070656420666F48
:1030A10072206E6F772E000A0D20546865207469B6
:1030B1006D65722069732072756E6E696E6720632B
:1030C1006F6E74696E756F75736C792C20696620EB
:1030D100796F752077616E7420746F207072696EDC
:1030E100742074686520636861726163746572201D
:1030F10061742074696D6572277320706C616365FA
:103101002C2069747320696D706F737369626C65CB
:103111002E000A0D20507265737320456E7465721E
:1031210020746F20436F6E74696E7565000A0D20FF
:10313100596F7572204F7074696F6E73204172659B
:103141003A000A0D20312E205072696E7420746885
:1031510065206368617261637465722061742074B3
:103161006865207374617274696E672E000A0D20A0
:10317100322E205072696E74207468652063686114
:1031810072616374657220617420796F7572207049
:103191006C616365206F662063686F6F73696E672A
:1031A1002E000A0D20332E20526573657420546859
:1031B1006520636C6F636B2E000A0D20342E205343
:1031C100746F702054686520636C6F636B2E000A06
:1031D1000D20352E20526573746172742054686518
:1031E10020636C6F636B2E000A0D20362E20436C1A
:1031F100656172207468652053637265656E2E0087
:103201000A0D20372E2048656C70204D656E7500C3
:103211000A0D20382E2045786974000A0D20456E6C
:1032210074657220796F75722063686F6963653A9E
:10323100000A0D456E7465722074686520636861CB
:103241007261637465723A002563000A0D456E74FC
:1032510065722074686520726F773A000A0D2053F9
:103261006F7272792077726F6E672063686F69631E
:10327100652C20456E74657220416761696E2E0070
:103281000A0D456E7465722074686520636F6C75F4
:103291006D6E3A002564000A0D20436C6F636B204C
:1032A1005375636365737366756C6C7920526573CE
:1032B1006574000A0D204C434420436C65617265BE
:1032C10064205375636365737366756C6C79200054
:1032D1000A0D205468616E6B20596F7520666F72FC
:0F32E1002050617274696369706174696E67006F
:0C32F400000000000000000000000000CE
:102AAD00438901758C4B758AFCD28C7F01A2A9EFED
:102ABD0024FF92A97F01A2AFEF24FF92AF22E582FE
:102ACD00900447F07F02900447E0FEE060541FEF52
:102ADD002448FCE43404FD7B0090044D740AF0E4BA
:102AED00A3F08E828B83C007C006C005C004C0034F
:102AFD00122C9EA982D003D004D005D006743029A3
:102B0D008C828D83F0900456740AF0E4A3F08E82CB
:102B1D008B83122DB2AD82AE83D007900447EDF0BA
:102B2D0080A47E00C3EE9F5010EE2448F582E4345D
:102B3D0004F5837430F00E80EB12226D9004481270
:102B4D0023AD12226D90F100743AF0227589207533
:102B5D009850758DFDD28E22AF83E58290044BF097
:102B6D00EFA3F010990280FB90044BE0FEA3E08EE2
:102B7D00999000012220980512258E80F8C298AEFA
:082B8D00997F008E828F8322E4
:06224000E478FFF6D8FD72
:10221E007910E94400601B7A019032F0786175A064
:10222E0004E493F2A308B8000205A0D9F4DAF2751B
:02223E00A0FFFF
:102B9500C008858108E50824FDF886831886821813
:102BA500E493A324DB600C24256005122C8380F0BC
:102BB500022C9BD2D5E493A3C083C082B473148640
:102BC500F018868318868218122EB16054A3122C31
:102BD5008380F5B4630818E618122C838043B46427
:102BE50017E630E74618E6F42401F608E6F4340063
:102BF500F6742D122C838033B4782D868318868243
:102C050018E4122C74E583122C73E583122C74E5F9
:102C150082122C73E582122C7430D5057430122C77
:102C250083D082D083022BA5B475F6E6FA18E6F9AF
:102C3500187C107D27122C5EFF7CE87D03122C5E2C
:102C4500C4F5837C647D00122C5E4283E975F00A2D
:102C550084C445F0F582EF80A97B000BC3E99CF99C
:102C6500EA9DFA50F61BE92CF9EA3DFAEB22C45429
:102C75000F700320D51FC2D52490D43440D4C0830F
:102C8500C082C0F0F582E8C0E0122B65D0E0F8D034
:102C9500F0D082D08322D00822AF83E58290044F02
:102CA500F0EFA3F090044FE0FEA3E0FF30E709C387
:102CB500E49EFCE49FFD80048E048F0590044DE0A6
:102CC500FEA3E0FF30E709C3E49EFAE49FFB80041E
:102CD5008E028F03900451EAF0EBA3F08C828D8372
:102CE500122D06AE82AF8390044FE0A3E030E70CCF
:102CF500C3E49EFCE49FFD8C828D83228E828F83AC
:102D050022AF83E582900453F0EFA3F0900455E4DD
:102D1500F0900453E0FEA3E0FF7D00900451E0FB3A
:102D2500A3E0FC235401FA7036EB2BFBEC33FC904B
:102D35000451EBF0ECA3F0900451E0FBA3E0FCC3DD
:102D4500EE9BEF9C5011ECC313CB13CBFC900451BD
:102D5500EBF0ECA3F080080D900455EDF080BC90ED
:102D65000455E0FF900453E0FDA3E0FE900451E01C
:102D7500FBA3E0FCC3ED9BEE9C400B900453EDC31D
:102D85009BF0EE9CA3F0900451E0FDA3E0C313CDAE
:102D950013CDFE900451EDF0EEA3F08F061FEE70FB
:0D2DA500C3900453E0FEA3E08E82F583226C
:102246007800E84400600A790075A004E4F309D830
:10225600FC7861E84400600C7901900400E4F0A386
:04226600D8FCD9FACD
:102DB200AF83E582900458F0EFA3F0900458E0FE50
:102DC200A3E0FF30E709C3E49EFCE49FFD80048E8C
:102DD200048F05900456E0FEA3E0FF33E433FB606A
:102DE20009C3E49EF9E49FFA80048E018F029004E5
:102DF2005AE9F0EAA3F08C828D83C003122E24AE2E
:102E020082AF83D003900458E0A3E033E4336B60D5
:102E12000CC3E49EFCE49FFD8C828D83228E828F04
:102E22008322AF83E58290045CF0EFA3F090045E0E
:102E3200E4F0A3F090045AE0FEA3E0FF7D109004BA
:102E42005CE0FBA3E0FC900460235401F0EB2BFB5D
:102E5200EC33FC90045CEBF0ECA3F090045EE0FB3E
:102E6200A3E0FCEB2BFBEC33FC90045EEBF0ECA359
:102E7200F0900460E0600890045EE043E001F090AE
:102E8200045EE0FBA3E0FCC3EB9EEC9F40139004C6
:102E92005EEBC39EF0EC9FA3F090045CE043E00184
:0F2EA200F0DD9B90045CE0FEA3E08E82F58322BE
:0D221100758108122ECDE582600302220EB9
:102EB10020F71430F6148883A88220F507E6A8834A
:102EC10075830022E280F7E49322E02275820022DA
:00000001FF
