:10226D0090F200E020E7F922AF82AE83ADF0FC9052
:10227D000400EFF0EEA3F0EDA3F0ECA3F090040456
:10228D00E4F0A3F0A3F0A3F0900408F0A3F0A3F002
:10229D00A3F0900404F0A3F0A3F0A3F0900400E0E9
:1022AD00FCA3E0FDA3E0FEA3E0FF900404E0F8A38F
:1022BD00E0F9A3E0FAA3E0FBC3E89CE99DEA9EEBFD
:1022CD009F506F900408E4F0A3F0A3F0A3F09004E6
:1022DD0008E0F8A3E0F9A3E0FAA3E0FBC3E8947FDC
:1022ED00E99400EA9400EB94005023900408E0F880
:1022FD00A3E0F9A3E0FAA3E0FB900408740128F031
:10230D00E439A3F0E43AA3F0E43BA3F080C09004D9
:10231D0004E0F8A3E0F9A3E0FAA3E0FB9004047451
:10232D000128F0E439A3F0E43AA3F0E43BA3F00272
:10233D0022B72290000FE4F5F012227590F0007490
:10234D0038F0900005E4F5F012227590F000743825
:10235D00F0900001E4F5F012227590F0007438F061
:10236D0012226D90F0007438F012226D90F000740E
:10237D0008F012226D90F000740EF012226D90F0A4
:10238D00007406F012226D90F0007401F022E582C7
:10239D0090040CF012226D90040CE090F100F022EC
:1023AD00AF83E58290040DF0EFA3F090040DE0FEF5
:1023BD00A3E0FF8E828F83E07003022453C007C019
:1023CD000612226DD006D0078E828F83E0FDA3AE5C
:1023DD0082AF8390040DEEF0EFA3F08D82C007C0A5
:1023ED000612239BD006D00790049DE0FCA3E0FDD0
:1023FD0090049D74012CF0E43DA3F090049DE0FC4D
:10240D00A3E0FDBC10ADBD00AA90049FE0FCA3E0CD
:10241D00FD90049F74012CF0E43DA3F090049DE425
:10242D00F0A3F090049FE0FCA3E090049DE0FBA3DB
:10243D00E0900410EBF08C82C007C00612247AD015
:10244D0006D0070223C090040DEEF0EFA3F0221288
:10245D00226D90F0007401F022E58290040FF012CD
:10246D00226D90040FE090F0004480F022E5829000
:10247D000411F0900410E0FF90049DF0E4A3F0909F
:10248D000411E0FE90049FF0E4A3F0BE0102800F62
:10249D00BE02028011BE03028018BE0429801F8F68
:1024AD008212246680208F06743F2EF582122466D8
:1024BD0080148F06740F2EF58212246680087450D6
:1024CD002FF5821224662290F0007480F012226D96
:1024DD0090F300E0900412E4F0900412E0FFBF05C9
:1024ED00005051746BC0E0743AC0E0122C9F1581FE
:1024FD001581900413E4F0900413E0FFBF10005019
:10250D002B12226D90F300E0FF7E00C007C0067411
:10251D006EC0E0743AC0E07480C0E0123009E5810D
:10252D0024FBF581900413E004F080CB900412E0BD
:05253D0004F080A5225E
:093A6B000A0D002020202578003E
:043EFC0000000000C2
:042200000222113273
:03220B0002254267
:03226A0002220E3F
:03220E000227178D
:10254200C0E0C082C083C007C006C005C004C0038B
:10255200C002C001C000C0D075D000C2AFC28CC2E0
:102562008D758C4B758AFCB291D28CD2AF9004A13E
:10257200E0F8A3E0F9A3E0FAA3E0FBA3E0FCA3E008
:10258200FDA3E0FEA3E0FF9004A1740128F0E4396A
:10259200A3F0E43AA3F0E43BA3F0E43CA3F0E43D6F
:1025A200A3F0E43EA3F0E43FA3F09004A1E0F8A37B
:1025B200E0A3E0A3E0A3E0A3E0A3E0A3E0E820E03F
:1025C2001B9004A97401F09004A1E4F0A3F0A3F01D
:1025D200A3F0A3F0A3F0A3F0A3F080059004A9E474
:1025E200F0D0D0D000D001D002D003D004D005D09A
:1025F20006D007D083D082D0E0329004A9E0FFBF9A
:102602000102800302267C9004A9E4F09004AAE06F
:1026120004F0E0FFBF0A0B9004ABE004F09004AAC0
:10262200E4F09004ABE0FFBF3C0B9004ACE004F09C
:102632009004ABE4F09004ACE0FF7E009004597487
:102642003CF0E4A3F08F828E83122EBCAE82900403
:1026520014EEF09004107408F075820412247A903B
:1026620004ACE0F582122BE19004ABE0F582122B70
:10267200E19004AAE0F582122BE1227474C0E074A6
:102682003AC0E0122C9F1581158174A3C0E0743A00
:10269200C0E0122C9F1581158174DDC0E0743AC030
:1026A200E0122C9F158115817431C0E0743BC0E0AB
:1026B200122C9F158115817457C0E0743BC0E01243
:1026C2002C9F15811581748BC0E0743BC0E0122CE5
:1026D2009F1581158174CBC0E0743BC0E0122C9F22
:1026E200158115817406C0E0743CC0E0122C9F1560
:1026F200811581744BC0E0743CC0E0122C9F15819F
:10270200158174B6C0E0743CC0E0122C9F1581158F
:1027120081122C8C229004157459F0900416746561
:10272200F09004177420F09004187442F090041989
:102732007469F090041A746BF090041B7420F0908A
:10274200041C7447F090041D7461F090041E7479A7
:10275200F090041F7469F09004207420F09004211A
:102762007448F09004227461F09004237469F0902C
:1027720004247420F09004257467F0900426746F8A
:10278200F09004277472F0900428746DF09004297C
:102792007469F090042A746EF090042B7474F090B3
:1027A200042CE4F090042D744DF090042E7479F012
:1027B20090042F7420F0900430744EF09004317421
:1027C20061F0900432746DF09004337465F09004FB
:1027D200347420F09004357469F09004367473F008
:1027E2009004377420F0900438744EF090043974D9
:1027F20069F090043A7474F090043B7469F09004A8
:102802003C746BF090043D7420F090043E7447F0E9
:1028120090043F7475F09004407470F09004417419
:1028220074F09004427461F0900443E4F09004AABE
:10283200F09004ABF09004ACF090044404F0122643
:102842007D122BC31223401225FC900444E0700336
:1028520002290974D1C0E0743CC0E0122C9F15819A
:10286200158174E6C0E0743CC0E0122C9F158115FE
:10287200817411C0E0743DC0E0122C9F1581158156
:102882007446C0E0743DC0E0122C9F15811581741E
:102892005DC0E0743DC0E0122C9F158115817473F8
:1028A200C0E0743DC0E0122C9F15811581748CC06C
:1028B200E0743DC0E0122C9F1581158174A4C0E024
:1028C200743DC0E0122C9F1581158174B5C0E0746F
:1028D2003DC0E0122C9F1581158174C7C0E0743D84
:1028E200C0E0122C9F1581158174D7C0E0743DC0E1
:1028F200E0122C9F1581158174E3C0E0743DC0E0A5
:10290200122C9F15811581900444E4F0122C8CE561
:1029120082FE24D0900444F0E0FFBF01689004449A
:10292200E0FF7E00C007C00674F9C0E0743DC0E05D
:10293200122C9FE58124FCF581122C8CAE8290042E
:1029420049EEF0E0FFBF3028900449E0FF7E00C06E
:1029520007C00674FCC0E0743DC0E07480C0E012A1
:102962003009E58124FBF581900444740AF0801556
:10297200900449E0FFBF0D089004447401F0800503
:10298200900444E4F0900444E0FF24F55003022B49
:10299200B5EFF5F0240B83F582E5F0240F83F58380
:1029A200E473B5BAFF4462758899B5A1A62B2929AB
:1029B2002B2B2B2B2B2B2B2B74FFC0E0743DC0E059
:1029C200122C9F15811581122C8CAE828E057F00F0
:1029D200C006C005C00774FCC0E0743DC0E0122C04
:1029E2009FE58124FCF5819004107401F075820149
:1029F20012247AD0068E8212239B022BB57416C043
:102A0200E0743EC0E0122C9F15811581122C8CAE11
:102A120082900445EEF0E024CA4008900445E0FFAD
:102A2200BF300F7427C0E0743EC0E0122C9F1581A6
:102A32001581900445E0FF24CF50D1900445E0FF7A
:102A4200BF350050C7900445E0FF7E00C007C006B6
:102A520074FCC0E0743DC0E0122C9FE58124FCF5BB
:102A620081744BC0E0743EC0E0122C9F1581158129
:102A7200122C8CAE82900446EEF0E024D0F0E0FFFF
:102A8200BF01028006900446E07023122C8CAE82B5
:102A9200900447EEF0E024D0F0900446E075F00A8E
:102AA200A4FF900447E0FE9004482FF0800D9004AC
:102AB20047E4F0900446E0900448F0900448E02493
:102AC200EF500F7427C0E0743EC0E0122C9F1581B6
:102AD2001581900448E024EF4096900448E0FF7E80
:102AE20000C007C00674F9C0E0743DC0E0122C9F1C
:102AF200E58124FCF58174FFC0E0743DC0E0122C36
:102B02009F15811581122C8CAE828E057F00C00626
:102B1200C005C00774FCC0E0743DC0E0122C9FE504
:102B22008124FCF581900445E024D0FF900448E024
:102B3200900410F08F8212247AD0068E8212239B88
:102B420080719004AAE4F09004ABF09004ACF074AD
:102B52005FC0E0743EC0E0122C9F15811581805346
:102B6200C28C747BC0E0743EC0E0122C9F158115AC
:102B7200818040D28C7499C0E0743EC0E0122C9FD8
:102B820015811581802D74B7C0E0743EC0E0122C0F
:102B92009F15811581801C12226D1224D48014127B
:102BA200267D800F74D4C0E0743EC0E0122C9F15C5
:102BB200811581900444E0FFBF0A02800302284C81
:012BC20022F0
:103A74000A0D2057656C636F6D6520746F20746840
:103A84006520576F726C64204F6620776F726B6984
:103A94006E67286D6179626529204C43442E000AC3
:103AA4000D2054686572652061726520736F6D65C1
:103AB40020696E737472756374696F6E7320746FAA
:103AC4002072656164206265666F726520746F2080
:103AD40070726F636565642E000A0D205468697303
:103AE400206C6162207761732061696D6564207464
:103AF4006F20616C6C6F77207468652073747564D3
:103B0400656E747320746F206C6561726E207468C6
:103B14006520696D706C656D656E746174696F6E36
:103B2400206F6620746865204C43442E000A0D20E3
:103B3400546865204C434420686173203420726FBC
:103B4400777320616E6420313620636F6C756D6EFF
:103B5400732E000A0D20547279696E6720746F20E9
:103B6400676F206265796F6E642074686174207772
:103B7400696C6C206769766520796F7520616E20A9
:103B84006572726F722E000A0D20696620796F7556
:103B94002077616E7420746F207072696E74206176
:103BA400206368617261637465722C207765206894
:103BB40061766520616E206F7074696F6E20666F28
:103BC4007220796F752E000A0D20417320736F6F78
:103BD4006E20617320796F7520656E746572207430
:103BE40068652070726F6772616D2C20746865203F
:103BF40074696D65722077696C6C2073746172747A
:103C04002E000A0D20496620796F752061726520A7
:103C14006865726520666F722074686520666972D3
:103C240073742074696D652C205468652074696D03
:103C340065722069732073746F7070656420666F99
:103C440072206E6F772E000A0D2054686520746907
:103C54006D65722069732072756E6E696E6720637C
:103C64006F6E74696E756F75736C792C206966203C
:103C7400796F752077616E7420746F207072696E2D
:103C8400742074686520636861726163746572206E
:103C940061742074696D6572277320706C6163654B
:103CA4002C2069747320696D706F737369626C651D
:103CB4002E000A0D20507265737320456E74657270
:103CC40020746F20436F6E74696E7565000A0D2051
:103CD400596F7572204F7074696F6E7320417265ED
:103CE4003A000A0D20312E205072696E74207468D7
:103CF4006520636861726163746572206174207405
:103D04006865207374617274696E672E000A0D20F1
:103D1400322E205072696E74207468652063686165
:103D240072616374657220617420796F757220709A
:103D34006C616365206F662063686F6F73696E677B
:103D44002E000A0D20332E205265736574205468AA
:103D54006520636C6F636B2E000A0D20342E205394
:103D6400746F702054686520636C6F636B2E000A57
:103D74000D20352E20526573746172742054686569
:103D840020636C6F636B2E000A0D20362E20436C6B
:103D9400656172207468652053637265656E2E00D8
:103DA4000A0D20372E20444452414D2044756D7035
:103DB400000A0D20382E2043473752414D204475C8
:103DC4006D70000A0D20392E2048656C70204D65F9
:103DD4006E75000A0D2031302E2045786974000A72
:103DE4000D20456E74657220796F75722063686F5B
:103DF4006963653A002564002563000A0D456E7405
:103E040065722074686520636861726163746572A9
:103E14003A000A0D456E7465722074686520726FED
:103E2400773A000A0D20536F7272792077726F6EA1
:103E3400672063686F6963652C20456E7465722022
:103E4400416761696E2E000A0D456E7465722074B7
:103E5400686520636F6C756D6E3A000A0D20436CC3
:103E64006F636B205375636365737366756C6C79EC
:103E7400205265736574000A0D2054696D657220C3
:103E840053746F70706564205375636365737366F0
:103E9400756C6C79000A0D2054696D657220537439
:103EA4006172746564205375636365737366756CBE
:103EB4006C79000A0D204C434420436C65617265A3
:103EC40064205375636365737366756C6C79200045
:103ED4000A0D205468616E6B20796F7520616E64E1
:0D3EE40020766973697420616761696E0062
:0C3F0000000000000000000000000000B5
:102BC300438901758C4B758AFCD28C7F01A2A9EFD6
:102BD30024FF92A97F01A2AFEF24FF92AF22E582E7
:102BE30090044AF07F0290044AE0FEE060541FEF35
:102BF300244BFCE43404FD7B00900450740AF0E49D
:102C0300A3F08E828B83C007C006C005C004C00337
:102C1300122DA8A982D003D004D005D00674302980
:102C23008C828D83F0900459740AF0E4A3F08E82B1
:102C33008B83122EBCAD82AE83D00790044AEDF095
:102C430080A47E00C3EE9F5010EE244BF582E43443
:102C530004F5837430F00E80EB12226D90044B1256
:102C630023AD12226D90F100743AF022AF83E58216
:102C730090044EF0EFA3F010990280FB90044EE015
:102C8300FEA3E08E99900001222098051225FC8076
:0C2C9300F8C298AE997F008E828F8322D9
:06224000E478FFF6D8FD72
:10221E007910E94400601B7A01903EFC789D75A010
:10222E0004E493F2A308B8000205A0D9F4DAF2751B
:02223E00A0FFFF
:102C9F00C008858108E50824FDF886831886821808
:102CAF00E493A324DB600C24256005122D8D80F0A6
:102CBF00022DA5D2D5E493A3C083C082B47314862A
:102CCF00F018868318868218123A4B6054A3122D7F
:102CDF008D80F5B4630818E618122D8D8043B46407
:102CEF0017E630E74618E6F42401F608E6F4340058
:102CFF00F6742D122D8D8033B4782D86831886822D
:102D0F0018E4122D7EE583122D7DE583122D7EE5CD
:102D1F0082122D7DE582122D7E30D5057430122D55
:102D2F008DD082D083022CAFB475F6E6FA18E6F98F
:102D3F00187C107D27122D68FF7CE87D03122D680B
:102D4F00C4F5837C647D00122D684283E975F00A17
:102D5F0084C445F0F582EF80A97B000BC3E99CF991
:102D6F00EA9DFA50F61BE92CF9EA3DFAEB22C4541E
:102D7F000F700320D51FC2D52490D43440D4C08304
:102D8F00C082C0F0F582E8C0E0122C6FD0E0F8D01E
:102D9F00F0D082D08322D00822AF83E582900452F4
:102DAF00F0EFA3F0900452E0FEA3E0FF30E709C379
:102DBF00E49EFCE49FFD80048E048F05900450E098
:102DCF00FEA3E0FF30E709C3E49EFAE49FFB800413
:102DDF008E028F03900454EAF0EBA3F08C828D8364
:102DEF00122E10AE82AF83900452E0A3E030E70CB6
:102DFF00C3E49EFCE49FFD8C828D83228E828F83A1
:102E0F0022AF83E582900456F0EFA3F0900458E4CC
:102E1F00F0900456E0FEA3E0FF7D00900454E0FB29
:102E2F00A3E0FC235401FA7036EB2BFBEC33FC9040
:102E3F000454EBF0ECA3F0900454E0FBA3E0FCC3CC
:102E4F00EE9BEF9C5011ECC313CB13CBFC900454AF
:102E5F00EBF0ECA3F080080D900458EDF080BC90DF
:102E6F000458E0FF900456E0FDA3E0FE900454E008
:102E7F00FBA3E0FCC3ED9BEE9C400B900456EDC30F
:102E8F009BF0EE9CA3F0900454E0FDA3E0C313CDA0
:102E9F0013CDFE900454EDF0EEA3F08F061FEE70ED
:0D2EAF00C3900456E0FEA3E08E82F583225E
:102246007800E84400600A790075A004E4F309D830
:10225600FC789DE84400600C7901900400E4F0A34A
:04226600D8FCD9FACD
:102EBC00AF83E58290045BF0EFA3F090045BE0FE3F
:102ECC00A3E0FF30E709C3E49EFCE49FFD80048E81
:102EDC00048F05900459E0FEA3E0FF33E433FB605C
:102EEC0009C3E49EF9E49FFA80048E018F029004DA
:102EFC005DE9F0EAA3F08C828D83C003122F2EAE15
:102F0C0082AF83D00390045BE0A3E033E4336B60C7
:102F1C000CC3E49EFCE49FFD8C828D83228E828FF9
:102F2C008322AF83E58290045FF0EFA3F0900461FD
:102F3C00E4F0A3F090045DE0FEA3E0FF7D109004AC
:102F4C005FE0FBA3E0FC900463235401F0EB2BFB4C
:102F5C00EC33FC90045FEBF0ECA3F0900461E0FB2D
:102F6C00A3E0FCEB2BFBEC33FC900461EBF0ECA34B
:102F7C00F0900463E06008900461E043E001F0909D
:102F8C000461E0FBA3E0FCC3EB9EEC9F40139004B8
:102F9C0061EBC39EF0EC9FA3F090045FE043E00173
:102FAC00F0DD9B90045FE0FEA3E08E82F58322C0EF
:102FBC00088581087E008E83122C6FD00822AFF01A
:102FCC00AE83E582900465F0EEA3F0EFA3F09004DD
:102FDC0065E0FDA3E0FEA3E0FF900464E0FC900438
:102FEC0079E4F0A3F0A3F090047CEDF0EEA3F0EF05
:102FFC00A3F090047FECF0902FBB023112C008E5D7
:10300C0081F50824FBFF900479E4F0A3F0A3F0E52C
:10301C000824FBF890047CE6F008E6A3F008E6A38D
:10302C00F090047FEFF0902FBB123112D00822E504
:10303C0082900475F0E0FF90046BE0C0E0A3E0C068
:10304C00E0A3E0C0E0123056800D900469E0C0E0CF
:10305C00A3E0C0E08F822215811581158190047345
:10306C00E02401F0A3E03400F022E582900476F035
:10307C00E02430FF24C6500D74072FFF900468E045
:10308C0060034307208F8202303BE582900477F087
:10309C00E0FFC4540FF582C007123076D0075307F7
:1030AC000F8F82023076E582900478F090046EE007
:1030BC00FCA3E0FDA3E0FEA3E0FF900472E0FB752F
:1030CC001320900478E0F98B00E828F8EF235401E2
:1030DC0048FBEC2CFCED33FDEE33FEEF33FFC3EB82
:1030EC00994007EBC399FB430401E51314FA8A13C7
:1030FC0070D590046EECF0EDA3F0EEA3F0EFA3F01E
:10310C00900472EBF022AF83E582900480F0EFA381
:10311C00F0900480E0FEA3E0FF900469EEF0EFA3D2
:10312C00F0900479E0FDA3E0FEA3E0FF90046BEDCA
:10313C00F0EEA3F0EFA3F0900473E4F0A3F090048E
:10314C007CE0FDA3E0FEA3E0FF8D828E838FF01266
:10315C003A4BFC90047C74012DF0E43EA3F0EFA3F9
:10316C00F0EC7003023A07BC250280030239FF9091
:10317C000482E4F0900483F0900484F0900485F0D1
:10318C00900486F0900487F0900488F0900489F005
:10319C0090048BF090048CF0A3F090048E14F0A3A8
:1031AC00F090047CE0FDA3E0FEA3E0FF8D828E8313
:1031BC008FF0123A4BFBA3AD82AE8390047CEDF002
:1031CC00EEA3F0EFA3F0900492EBF0BB25088B82FA
:1031DC0012303B02314ABB300050030232ABEB24BD
:1031EC00C650030232AB90048EE0F509A3E0F50A59
:1031FC0074FFB50963B50A60C005C006C00790042A
:10320C008CE0FAA3E0FF90049BEAF0EFA3F09000AF
:10321C000AC005C003123A2BAE82AF83D003D0058F
:10322C008B027D00EA2EFEED3FFFEE24D0FEEF3444
:10323C00FFFF90048CEEF0EFA3F0D007D006D00582
:10324C0090048CE0F5F0A3E045F060030231B890F7
:10325C0004837401F00231B8C005C006C0079004A5
:10326C009BE509F0E50AA3F090000AC006C005C072
:10327C0003123A2BAA82AF83D003D005D0067E006E
:10328C00EB2AFAEE3FFFEA24D0FAEF34FFFF90046A
:10329C008EEAF0EFA3F0D007D006D0050231B8903B
:1032AC000492E0FBBB2E2FC005C006C00790048E15
:1032BC00E0FAA3E0FFBAFF05BFFF028009D007D0F8
:1032CC0006D0050231B8D007D006D00590048EE4A4
:1032DC00F0A3F00231B8BB61004014EB2485400F21
:1032EC0090049274DF5BF09004687401F080059098
:1032FC000468E4F0900492E0FBBB20028075BB2BC9
:10330C00028067BB2D028059BB4202806FBB430217
:10331C00807CBB44030235A2BB46030235C8BB48C4
:10332C00030231B8BB49030235A2BB4A030231B8D0
:10333C00BB4C028050BB4F030235B0BB500302356F
:10334C0010BB53028077BB54030231B8BB55030248
:10335C0035B8BB58030235C0BB5A030231B802352D
:10336C00D09004827401F00231B89004847401F09E
:10337C000231B89004857401F00231B8900487745E
:10338C0001F00231B89004887401F00231B8900455
:10339C0087E0600E90047FE014F9F0900492E7F05F
:1033AC00800F90047FE024FEFFF08F01900492E7E1
:1033BC00F0900492E0F58212303B0235DF90047FEE
:1033CC00E024FDFFF08F018705098706098707199F
:1033DC001990046EEDF0EEA3F0EFA3F08D828E83C6
:1033EC008FF0123A1385820985830A90048EE0FAD5
:1033FC00A3E0FDBAFF0DBDFF0A90048EE509F0E5D0
:10340C000AA3F0900482E0704B90048CE0FAA3E0E5
:10341C00FDC3E5099AE50A9D503A90048CEAC395E0
:10342C0009F0ED950AA3F090048CE0FAA3E0FD8A74
:10343C00068D071ABAFF011DEE4F6010758220C071
:10344C0005C00212303BD002D00580E390048CEA18
:10345C00F0EDA3F090048EE0F50CA3E0F50D9004D4
:10346C006EE0FAA3E0FDA3E0FF8A828D838FF01259
:10347C003A4BF50B603CC3E4950C7480850DF063FE
:10348C00F08095F0502C150C74FFB50C02150D85C1
:10349C000B8212303B90046EE0FAA3E0FDA3E0FF38
:1034AC000ABA00010D90046EEAF0EDA3F0EFA3F060
:1034BC0080AC900482E070030235DF90048CE0FE57
:1034CC00A3E0FFC3E5099EE50A9F40030235DF90A8
:1034DC00048CEEC39509F0EF950AA3F090048CE0F0
:1034EC00FEA3E0FF8E028F051EBEFF011FEA4D708A
:1034FC00030235D7758220C007C00612303BD006B8
:10350C00D00780E090047FE024FDFDF08D01870E54
:10351C0009870F098710191990046EE50EF0E50F55
:10352C00A3F0E510A3F0900470E0FDBD800040080E
:10353C009004927443F08020BD6000400890049287
:10354C007450F08013BD400040089004927449F010
:10355C0080069004927458F0900492E0FDF582C0BD
:10356C000512303B75823A12303B75823012303B7B
:10357C0075827812303BD005BD4902800EBD5002D9
:10358C00800990046FE0F58212309690046EE0F59D
:10359C0082123096803D9004867401F090048B74F6
:1035AC000AF0802F90048B7408F0802790048B74A1
:1035BC000AF0801F90048B7410F0801790048974AB
:1035CC0001F0800F8B8212303B800890048CEEF05F
:1035DC00EFA3F0900489E0607190047FE024FCFF7D
:1035EC00F08F0187030987050987060987071919D1
:1035FC001990046EEBF0EDA3F0EEA3F0EFA3F090B6
:10360C00046E74F1F0743EA3F07480A3F090046E19
:10361C00E0F50EA3E0F50FA3E0F5107401250EFA0A
:10362C00E4350FFBAF1090046EEAF0EBA3F0EFA3C0
:10363C00F0850E82850F838510F0123A4BFF7003D4
:10364C0002314A8F8212303B80C390048BE07003AE
:10365C0002314A900487E0604790047FE014F9F04F
:10366C0087077E007D007B0090046EEFF0EEA3F0E8
:10367C00EDA3F0EBA3F0900486E0600302372290F8
:10368C00046EE0FBA3E0A3E0A3E07D007E007F00DE
:10369C0090046EEBF0EDA3F0EEA3F0EFA3F08076C8
:1036AC00900488E0602890047FE024FCFFF08F01F8
:1036BC0087030987050987060987071919199004D3
:1036CC006EEBF0EDA3F0EEA3F0EFA3F080489004C6
:1036DC007FE024FEFFF08F01870609870719EF337F
:1036EC0095E0FDFB90046EEEF0EFA3F0EDA3F0EB94
:1036FC00A3F0900486E0701E90046EE0FBA3E0FD46
:10370C00A3E0A3E07E007F0090046EEBF0EDA3F04D
:10371C00EEA3F0EFA3F0900486E0604190046EE01D
:10372C00FBA3E0FDA3E0FEA3E0FF30E72B90046ECB
:10373C00E0FBA3E0FDA3E0FEA3E0FFC3E49BFBE4FE
:10374C009DFDE49EFEE49FFF90046EEBF0EDA3F074
:10375C00EEA3F0EFA3F08005900486E4F090048AC9
:10376C007401F090048BE0F50C751198751204E45B
:10377C00F509F50A900472E4F0850C821230B290CF
:10378C00048AE07026900472E0C4F50E85118285DF
:10379C001283E0FFE50E4207851182851283EFF05C
:1037AC00151174FFB511021512800C900472E0FF14
:1037BC00851182851283F00509E4B50902050A908A
:1037CC00048AE0B40100E433F090046EE0FAA3E064
:1037DC00FBA3E0FEA3E0FFEA4B4E4F7097900499D9
:1037EC00E511F0E512A3F0900490E509F0E50AA3C9
:1037FC00F090048CE0F5F0A3E045F0700990048C97
:10380C007401F0E4A3F0900483E0FFE070479004AF
:10381C0082E07041850911850A1290048CE0FAA3AC
:10382C00E0FBC007AF110F8F067F00C3EE9AEF9B32
:10383C00D0075019758220C007C003C00212303B5C
:10384C00D002D003D0071ABAFF011B80D590048C8C
:10385C00EAF0EBA3F0900486E0602075822DC0079F
:10386C0012303BD00790048CE024FFFDA3E034FF22
:10387C00FE90048CEDF0EEA3F08056900490E0F5F1
:10388C00F0A3E045F0604A900484E0602075822B40
:10389C00C00712303BD00790048CE024FFFDA3E05E
:1038AC0034FFFE90048CEDF0EEA3F08024900485A0
:1038BC00E0601E758220C00712303BD00790048C4C
:1038CC00E024FFFDA3E034FFFE90048CEDF0EEA3AA
:1038DC00F0900482E07048900490E0F511A3E0F5BC
:1038EC001290048CE0FAA3E0FBC0078A068B071A3F
:1038FC00BAFF011BC3E5119EE5129FD0075053EF91
:10390C0060067D307E0080047D207E008D82C007A5
:10391C00C003C00212303BD002D003D00780CA9043
:10392C00048CE0FEA3E0FF900490E0F511A3E0F519
:10393C0012C3E5119EE5129F500F90048CEEC395B7
:10394C0011F0EF9512A3F0801190048CE4F0A3F029
:10395C00800890048CEAF0EBA3F0900499E0FEA3AD
:10396C00E0FF900490E0F511A3E0F512AA11AD125E
:10397C00151174FFB511021512EA4D604590048AB9
:10398C00E0B40100E433F090048AE070140EBE0041
:10399C00010F8E828F83E0C4540FFD900472F0806F
:1039AC000E8E828F83E0FD53050F900472EDF09024
:1039BC000472E0F582C007C006123076D006D0073C
:1039CC0080AA900482E0700302314A90048CE0FEDD
:1039DC00A3E0FF8E038F051EBEFF011FEB4D70038E
:1039EC0002314A758220C007C00612303BD006D087
:1039FC000780E08C8212303B02314A900473E0FE67
:073A0C00A3E08E82F5832286
:0B3EF1003C4E4F20464C4F41543E0019
:103A1300AA82AB83123A4B6003A380F8C3E5829A70
:103A2300F582E5839BF58322AA83AB828BF0900416
:103A33009BE0A4F8A9F08AF0E0A429F98BF0A3E0B5
:083A4300A429F58388822222E8
:0D221100758113123A67E582600302220E08
:103A4B0020F71430F6148883A88220F507E6A883A4
:103A5B0075830022E280F7E49322E0227582002234
:00000001FF
